{
  "contractName": "EventContract",
  "abi": [
    {
      "inputs": [
        {
          "internalType": "uint256",
          "name": "",
          "type": "uint256"
        }
      ],
      "name": "events",
      "outputs": [
        {
          "internalType": "address",
          "name": "organizer",
          "type": "address"
        },
        {
          "internalType": "string",
          "name": "name",
          "type": "string"
        },
        {
          "internalType": "uint256",
          "name": "date",
          "type": "uint256"
        },
        {
          "internalType": "uint256",
          "name": "price",
          "type": "uint256"
        },
        {
          "internalType": "uint256",
          "name": "ticketCount",
          "type": "uint256"
        },
        {
          "internalType": "uint256",
          "name": "ticketRemain",
          "type": "uint256"
        }
      ],
      "stateMutability": "view",
      "type": "function"
    },
    {
      "inputs": [],
      "name": "nextId",
      "outputs": [
        {
          "internalType": "uint256",
          "name": "",
          "type": "uint256"
        }
      ],
      "stateMutability": "view",
      "type": "function"
    },
    {
      "inputs": [
        {
          "internalType": "address",
          "name": "",
          "type": "address"
        },
        {
          "internalType": "uint256",
          "name": "",
          "type": "uint256"
        }
      ],
      "name": "tickets",
      "outputs": [
        {
          "internalType": "uint256",
          "name": "",
          "type": "uint256"
        }
      ],
      "stateMutability": "view",
      "type": "function"
    },
    {
      "inputs": [
        {
          "internalType": "string",
          "name": "name",
          "type": "string"
        },
        {
          "internalType": "uint256",
          "name": "date",
          "type": "uint256"
        },
        {
          "internalType": "uint256",
          "name": "price",
          "type": "uint256"
        },
        {
          "internalType": "uint256",
          "name": "ticketCount",
          "type": "uint256"
        }
      ],
      "name": "createEvent",
      "outputs": [],
      "stateMutability": "nonpayable",
      "type": "function"
    },
    {
      "inputs": [
        {
          "internalType": "uint256",
          "name": "id",
          "type": "uint256"
        },
        {
          "internalType": "uint256",
          "name": "quantity",
          "type": "uint256"
        }
      ],
      "name": "buyTicket",
      "outputs": [],
      "stateMutability": "payable",
      "type": "function"
    },
    {
      "inputs": [
        {
          "internalType": "uint256",
          "name": "id",
          "type": "uint256"
        },
        {
          "internalType": "uint256",
          "name": "quantity",
          "type": "uint256"
        },
        {
          "internalType": "address",
          "name": "to",
          "type": "address"
        }
      ],
      "name": "transferTicket",
      "outputs": [],
      "stateMutability": "nonpayable",
      "type": "function"
    }
  ],
  "bytecode": "0x6080604052348015600e575f80fd5b506112ed8061001c5f395ff3fe608060405260043610610054575f3560e01c80630374ab0b146100585780630b79143014610080578063298ec208146100c157806361b8ce8c146100dd578063dae7a13c14610107578063f086a09b14610143575b5f80fd5b348015610063575f80fd5b5061007e600480360381019061007991906108a0565b61016b565b005b34801561008b575f80fd5b506100a660048036038101906100a19190610924565b61032a565b6040516100b896959493929190610a0d565b60405180910390f35b6100db60048036038101906100d69190610a73565b610406565b005b3480156100e8575f80fd5b506100f16105dc565b6040516100fe9190610ab1565b60405180910390f35b348015610112575f80fd5b5061012d60048036038101906101289190610af4565b6105e2565b60405161013a9190610ab1565b60405180910390f35b34801561014e575f80fd5b5061016960048036038101906101649190610b32565b610602565b005b4283116101ad576040517f08c379a00000000000000000000000000000000000000000000000000000000081526004016101a490610bf2565b60405180910390fd5b5f81116101ef576040517f08c379a00000000000000000000000000000000000000000000000000000000081526004016101e690610c80565b60405180910390fd5b6040518060c001604052803373ffffffffffffffffffffffffffffffffffffffff16815260200186868080601f0160208091040260200160405190810160405280939291908181526020018383808284375f81840152601f19601f820116905080830192505050505050508152602001848152602001838152602001828152602001828152505f8060025481526020019081526020015f205f820151815f015f6101000a81548173ffffffffffffffffffffffffffffffffffffffff021916908373ffffffffffffffffffffffffffffffffffffffff16021790555060208201518160010190816102e09190610ec5565b5060408201518160020155606082015181600301556080820151816004015560a0820151816005015590505060025f81548092919061031e90610fc1565b91905055505050505050565b5f602052805f5260405f205f91509050805f015f9054906101000a900473ffffffffffffffffffffffffffffffffffffffff169080600101805461036d90610cf8565b80601f016020809104026020016040519081016040528092919081815260200182805461039990610cf8565b80156103e45780601f106103bb576101008083540402835291602001916103e4565b820191905f5260205f20905b8154815290600101906020018083116103c757829003601f168201915b5050505050908060020154908060030154908060040154908060050154905086565b5f805f8481526020019081526020015f20600201540361045b576040517f08c379a000000000000000000000000000000000000000000000000000000000815260040161045290611052565b60405180910390fd5b425f808481526020019081526020015f2060020154116104b0576040517f08c379a00000000000000000000000000000000000000000000000000000000081526004016104a7906110ba565b60405180910390fd5b5f805f8481526020019081526020015f2090508181600301546104d391906110d8565b3414610514576040517f08c379a000000000000000000000000000000000000000000000000000000000815260040161050b90611163565b60405180910390fd5b818160050154101561055b576040517f08c379a0000000000000000000000000000000000000000000000000000000008152600401610552906111cb565b60405180910390fd5b81816005015f82825461056e91906111e9565b925050819055508160015f3373ffffffffffffffffffffffffffffffffffffffff1673ffffffffffffffffffffffffffffffffffffffff1681526020019081526020015f205f8581526020019081526020015f205f8282546105d0919061121c565b92505081905550505050565b60025481565b6001602052815f5260405f20602052805f5260405f205f91509150505481565b5f805f8581526020019081526020015f206002015403610657576040517f08c379a000000000000000000000000000000000000000000000000000000000815260040161064e90611052565b60405180910390fd5b425f808581526020019081526020015f2060020154116106ac576040517f08c379a00000000000000000000000000000000000000000000000000000000081526004016106a3906110ba565b60405180910390fd5b8160015f3373ffffffffffffffffffffffffffffffffffffffff1673ffffffffffffffffffffffffffffffffffffffff1681526020019081526020015f205f8581526020019081526020015f2054101561073b576040517f08c379a000000000000000000000000000000000000000000000000000000000815260040161073290611299565b60405180910390fd5b8160015f3373ffffffffffffffffffffffffffffffffffffffff1673ffffffffffffffffffffffffffffffffffffffff1681526020019081526020015f205f8581526020019081526020015f205f82825461079691906111e9565b925050819055508160015f8373ffffffffffffffffffffffffffffffffffffffff1673ffffffffffffffffffffffffffffffffffffffff1681526020019081526020015f205f8581526020019081526020015f205f8282546107f8919061121c565b92505081905550505050565b5f80fd5b5f80fd5b5f80fd5b5f80fd5b5f80fd5b5f8083601f84011261082d5761082c61080c565b5b8235905067ffffffffffffffff81111561084a57610849610810565b5b60208301915083600182028301111561086657610865610814565b5b9250929050565b5f819050919050565b61087f8161086d565b8114610889575f80fd5b50565b5f8135905061089a81610876565b92915050565b5f805f805f608086880312156108b9576108b8610804565b5b5f86013567ffffffffffffffff8111156108d6576108d5610808565b5b6108e288828901610818565b955095505060206108f58882890161088c565b93505060406109068882890161088c565b92505060606109178882890161088c565b9150509295509295909350565b5f6020828403121561093957610938610804565b5b5f6109468482850161088c565b91505092915050565b5f73ffffffffffffffffffffffffffffffffffffffff82169050919050565b5f6109788261094f565b9050919050565b6109888161096e565b82525050565b5f81519050919050565b5f82825260208201905092915050565b8281835e5f83830152505050565b5f601f19601f8301169050919050565b5f6109d08261098e565b6109da8185610998565b93506109ea8185602086016109a8565b6109f3816109b6565b840191505092915050565b610a078161086d565b82525050565b5f60c082019050610a205f83018961097f565b8181036020830152610a3281886109c6565b9050610a4160408301876109fe565b610a4e60608301866109fe565b610a5b60808301856109fe565b610a6860a08301846109fe565b979650505050505050565b5f8060408385031215610a8957610a88610804565b5b5f610a968582860161088c565b9250506020610aa78582860161088c565b9150509250929050565b5f602082019050610ac45f8301846109fe565b92915050565b610ad38161096e565b8114610add575f80fd5b50565b5f81359050610aee81610aca565b92915050565b5f8060408385031215610b0a57610b09610804565b5b5f610b1785828601610ae0565b9250506020610b288582860161088c565b9150509250929050565b5f805f60608486031215610b4957610b48610804565b5b5f610b568682870161088c565b9350506020610b678682870161088c565b9250506040610b7886828701610ae0565b9150509250925092565b7f596f752063616e206f7267616e697a6520616e206576656e7420666f722061205f8201527f6675747572652064617465000000000000000000000000000000000000000000602082015250565b5f610bdc602b83610998565b9150610be782610b82565b604082019050919050565b5f6020820190508181035f830152610c0981610bd0565b9050919050565b7f596f752063616e206f7267616e697a6520616e206576656e74206f6e6c7920695f8201527f6620796f7520637265617465206d6f7265207468616e2030207469636b657473602082015250565b5f610c6a604083610998565b9150610c7582610c10565b604082019050919050565b5f6020820190508181035f830152610c9781610c5e565b9050919050565b7f4e487b71000000000000000000000000000000000000000000000000000000005f52604160045260245ffd5b7f4e487b71000000000000000000000000000000000000000000000000000000005f52602260045260245ffd5b5f6002820490506001821680610d0f57607f821691505b602082108103610d2257610d21610ccb565b5b50919050565b5f819050815f5260205f209050919050565b5f6020601f8301049050919050565b5f82821b905092915050565b5f60088302610d847fffffffffffffffffffffffffffffffffffffffffffffffffffffffffffffffff82610d49565b610d8e8683610d49565b95508019841693508086168417925050509392505050565b5f819050919050565b5f610dc9610dc4610dbf8461086d565b610da6565b61086d565b9050919050565b5f819050919050565b610de283610daf565b610df6610dee82610dd0565b848454610d55565b825550505050565b5f90565b610e0a610dfe565b610e15818484610dd9565b505050565b5b81811015610e3857610e2d5f82610e02565b600181019050610e1b565b5050565b601f821115610e7d57610e4e81610d28565b610e5784610d3a565b81016020851015610e66578190505b610e7a610e7285610d3a565b830182610e1a565b50505b505050565b5f82821c905092915050565b5f610e9d5f1984600802610e82565b1980831691505092915050565b5f610eb58383610e8e565b9150826002028217905092915050565b610ece8261098e565b67ffffffffffffffff811115610ee757610ee6610c9e565b5b610ef18254610cf8565b610efc828285610e3c565b5f60209050601f831160018114610f2d575f8415610f1b578287015190505b610f258582610eaa565b865550610f8c565b601f198416610f3b86610d28565b5f5b82811015610f6257848901518255600182019150602085019450602081019050610f3d565b86831015610f7f5784890151610f7b601f891682610e8e565b8355505b6001600288020188555050505b505050505050565b7f4e487b71000000000000000000000000000000000000000000000000000000005f52601160045260245ffd5b5f610fcb8261086d565b91507fffffffffffffffffffffffffffffffffffffffffffffffffffffffffffffffff8203610ffd57610ffc610f94565b5b600182019050919050565b7f4576656e7420646f6573206e6f742065786973740000000000000000000000005f82015250565b5f61103c601483610998565b915061104782611008565b602082019050919050565b5f6020820190508181035f83015261106981611030565b9050919050565b7f4576656e742068617320616c7265616479206f636375727265640000000000005f82015250565b5f6110a4601a83610998565b91506110af82611070565b602082019050919050565b5f6020820190508181035f8301526110d181611098565b9050919050565b5f6110e28261086d565b91506110ed8361086d565b92508282026110fb8161086d565b9150828204841483151761111257611111610f94565b5b5092915050565b7f4e6f7420656e6f7567682045746865722073656e7400000000000000000000005f82015250565b5f61114d601583610998565b915061115882611119565b602082019050919050565b5f6020820190508181035f83015261117a81611141565b9050919050565b7f4e6f7420656e6f756768207469636b65747320617661696c61626c65000000005f82015250565b5f6111b5601c83610998565b91506111c082611181565b602082019050919050565b5f6020820190508181035f8301526111e2816111a9565b9050919050565b5f6111f38261086d565b91506111fe8361086d565b925082820390508181111561121657611215610f94565b5b92915050565b5f6112268261086d565b91506112318361086d565b925082820190508082111561124957611248610f94565b5b92915050565b7f596f7520646f206e6f74206861766520656e6f756768207469636b65747300005f82015250565b5f611283601e83610998565b915061128e8261124f565b602082019050919050565b5f6020820190508181035f8301526112b081611277565b905091905056fea26469706673582212206b4a179c68eb6b31ed262756653aebba2f13d63c86bd634f7fc8e68cc48baa6b64736f6c63430008190033",
  "immutableReferences": {},
  "source": "// pragma solidity >=0.5.0 <0.9.0;\r\n\r\n// contract EventContract {\r\n//     struct Event {\r\n//         address organizer;\r\n//         string name;\r\n//         uint date; //0 1 2\r\n//         uint price;\r\n//         uint ticketCount; //1 sec 0.5 sec\r\n//         uint ticketRemain;\r\n//     }\r\n//     mapping(uint => Event) public events;\r\n//     mapping(address => mapping(uint => uint)) public tickets;\r\n//     uint public nextId;\r\n\r\n//     function createEvent(\r\n//         string memory name,\r\n//         uint date,\r\n//         uint price,\r\n//         uint ticketCount\r\n//     ) external {\r\n//         require(\r\n//             date > block.timestamp,\r\n//             \"You can organize event for future date\"\r\n//         );\r\n//         require(\r\n//             ticketCount > 0,\r\n//             \"You can organize event only if you create more than 0 tickets\"\r\n//         );\r\n//         events[nextId] = Event(\r\n//             msg.sender,\r\n//             name,\r\n//             date,\r\n//             price,\r\n//             ticketCount,\r\n//             ticketCount\r\n//         );\r\n//         nextId++;\r\n//     }\r\n\r\n//     function buyTicket(uint id, uint quantity) external payable {\r\n//         require(events[id].date != 0, \"Event does not exist\");\r\n//         require(events[id].date > block.timestamp, \"Event has already occured\");\r\n//         Event storage _event = events[id];\r\n//         require(msg.value == (_event.price * quantity), \"Ethere is not enough\");\r\n//         require(_event.ticketRemain >= quantity, \"Not enough tickets\");\r\n//         _event.ticketRemain -= quantity;\r\n//         tickets[msg.sender][id] += quantity;\r\n//     }\r\n\r\n//     function transferTicket(uint id, uint quantity, address to) external {\r\n//         require(events[id].date != 0, \"Event does not exist\");\r\n//         require(events[id].date > block.timestamp, \"Event has already occured\");\r\n//         require(\r\n//             tickets[msg.sender][id] >= quantity,\r\n//             \"You do not have enough tickets\"\r\n//         );\r\n//         tickets[msg.sender][id] -= quantity;\r\n//         tickets[to][id] += quantity;\r\n//     }\r\n// }\r\n\r\n// SPDX-License-Identifier: Unlicense\r\npragma solidity >=0.5.0 <0.9.0;\r\n\r\ncontract EventContract {\r\n    struct Event {\r\n        address organizer;\r\n        string name;\r\n        uint date; //0 1 2\r\n        uint price;\r\n        uint ticketCount; //1 sec 0.5 sec\r\n        uint ticketRemain;\r\n    }\r\n    mapping(uint => Event) public events;\r\n    mapping(address => mapping(uint => uint)) public tickets;\r\n    uint public nextId;\r\n\r\n    function createEvent(\r\n        string calldata name, // Updated data location to calldata\r\n        uint date,\r\n        uint price,\r\n        uint ticketCount\r\n    ) external {\r\n        require(\r\n            date > block.timestamp,\r\n            \"You can organize an event for a future date\"\r\n        );\r\n        require(\r\n            ticketCount > 0,\r\n            \"You can organize an event only if you create more than 0 tickets\"\r\n        );\r\n        events[nextId] = Event(\r\n            msg.sender,\r\n            name,\r\n            date,\r\n            price,\r\n            ticketCount,\r\n            ticketCount\r\n        );\r\n        nextId++;\r\n    }\r\n\r\n    function buyTicket(uint id, uint quantity) external payable {\r\n        require(events[id].date != 0, \"Event does not exist\");\r\n        require(\r\n            events[id].date > block.timestamp,\r\n            \"Event has already occurred\"\r\n        );\r\n        Event storage _event = events[id];\r\n        require(\r\n            msg.value == (_event.price * quantity),\r\n            \"Not enough Ether sent\"\r\n        );\r\n        require(\r\n            _event.ticketRemain >= quantity,\r\n            \"Not enough tickets available\"\r\n        );\r\n        _event.ticketRemain -= quantity;\r\n        tickets[msg.sender][id] += quantity;\r\n    }\r\n\r\n    function transferTicket(uint id, uint quantity, address to) external {\r\n        require(events[id].date != 0, \"Event does not exist\");\r\n        require(\r\n            events[id].date > block.timestamp,\r\n            \"Event has already occurred\"\r\n        );\r\n        require(\r\n            tickets[msg.sender][id] >= quantity,\r\n            \"You do not have enough tickets\"\r\n        );\r\n        tickets[msg.sender][id] -= quantity;\r\n        tickets[to][id] += quantity;\r\n    }\r\n}\r\n",
  "sourcePath": "C:\\Users\\hp\\Desktop\\event-management\\contracts\\EventContract.sol",
  "compiler": {
    "name": "solc",
    "version": "0.8.25+commit.b61c2a91.Emscripten.clang"
  },
  "schemaVersion": "3.4.16",
  "updatedAt": "2024-03-19T17:43:22.204Z",
  "devdoc": {
    "kind": "dev",
    "methods": {},
    "version": 1
  },
  "userdoc": {
    "kind": "user",
    "methods": {},
    "version": 1
  }
}